{
  "contractName": "BoerContract",
  "abi": [
    {
      "constant": true,
      "inputs": [
        {
          "name": "",
          "type": "uint256"
        }
      ],
      "name": "deployedJaarSubContracts",
      "outputs": [
        {
          "name": "",
          "type": "address"
        }
      ],
      "payable": false,
      "stateMutability": "view",
      "type": "function"
    },
    {
      "constant": true,
      "inputs": [],
      "name": "contractOwner",
      "outputs": [
        {
          "name": "",
          "type": "address"
        }
      ],
      "payable": false,
      "stateMutability": "view",
      "type": "function"
    },
    {
      "inputs": [
        {
          "name": "creator",
          "type": "address"
        }
      ],
      "payable": false,
      "stateMutability": "nonpayable",
      "type": "constructor"
    },
    {
      "constant": false,
      "inputs": [
        {
          "name": "price",
          "type": "uint256"
        },
        {
          "name": "length",
          "type": "uint256"
        }
      ],
      "name": "createJaarSubContract",
      "outputs": [],
      "payable": false,
      "stateMutability": "nonpayable",
      "type": "function"
    },
    {
      "constant": true,
      "inputs": [],
      "name": "getDeployedContracts",
      "outputs": [
        {
          "name": "",
          "type": "address[]"
        }
      ],
      "payable": false,
      "stateMutability": "view",
      "type": "function"
    }
  ],
  "bytecode": "0x608060405234801561001057600080fd5b506040516020806110fb8339810180604052602081101561003057600080fd5b810190808051906020019092919050505080600160006101000a81548173ffffffffffffffffffffffffffffffffffffffff021916908373ffffffffffffffffffffffffffffffffffffffff16021790555050611069806100926000396000f3fe608060405260043610610062576000357c0100000000000000000000000000000000000000000000000000000000900463ffffffff16806323b84136146100675780637a807c50146100e2578063aa9a068f14610127578063ce606ee014610193575b600080fd5b34801561007357600080fd5b506100a06004803603602081101561008a57600080fd5b81019080803590602001909291905050506101ea565b604051808273ffffffffffffffffffffffffffffffffffffffff1673ffffffffffffffffffffffffffffffffffffffff16815260200191505060405180910390f35b3480156100ee57600080fd5b506101256004803603604081101561010557600080fd5b810190808035906020019092919080359060200190929190505050610228565b005b34801561013357600080fd5b5061013c61035f565b6040518080602001828103825283818151815260200191508051906020019060200280838360005b8381101561017f578082015181840152602081019050610164565b505050509050019250505060405180910390f35b34801561019f57600080fd5b506101a86103ed565b604051808273ffffffffffffffffffffffffffffffffffffffff1673ffffffffffffffffffffffffffffffffffffffff16815260200191505060405180910390f35b6000818154811015156101f957fe5b906000526020600020016000915054906101000a900473ffffffffffffffffffffffffffffffffffffffff1681565b600160009054906101000a900473ffffffffffffffffffffffffffffffffffffffff1673ffffffffffffffffffffffffffffffffffffffff163373ffffffffffffffffffffffffffffffffffffffff1614151561028457600080fd5b6000828233610291610413565b808481526020018381526020018273ffffffffffffffffffffffffffffffffffffffff1673ffffffffffffffffffffffffffffffffffffffff1681526020019350505050604051809103906000f0801580156102f1573d6000803e3d6000fd5b50905060008190806001815401808255809150509060018203906000526020600020016000909192909190916101000a81548173ffffffffffffffffffffffffffffffffffffffff021916908373ffffffffffffffffffffffffffffffffffffffff16021790555050505050565b606060008054806020026020016040519081016040528092919081815260200182805480156103e357602002820191906000526020600020905b8160009054906101000a900473ffffffffffffffffffffffffffffffffffffffff1673ffffffffffffffffffffffffffffffffffffffff1681526020019060010190808311610399575b5050505050905090565b600160009054906101000a900473ffffffffffffffffffffffffffffffffffffffff1681565b604051610c1a806104248339019056fe6080604052600060015534801561001557600080fd5b50604051606080610c1a8339810180604052606081101561003557600080fd5b81019080805190602001909291908051906020019092919080519060200190929190505050806000806101000a81548173ffffffffffffffffffffffffffffffffffffffff021916908373ffffffffffffffffffffffffffffffffffffffff1602179055508260028190555081600381905550505050610b60806100ba6000396000f3fe6080604052600436106100ba576000357c0100000000000000000000000000000000000000000000000000000000900463ffffffff1680632f8d28fa146100bf5780636c67da43146100ea57806398d5fdca14610115578063a2b40d1914610140578063b85dfb801461017b578063ba49a08c146101e4578063c2efcff51461020f578063ce40199214610266578063d1607662146102e1578063d519e871146102eb578063f0d3a9df14610316578063f90aa19514610341575b600080fd5b3480156100cb57600080fd5b506100d4610386565b6040518082815260200191505060405180910390f35b3480156100f657600080fd5b506100ff61038c565b6040518082815260200191505060405180910390f35b34801561012157600080fd5b5061012a610392565b6040518082815260200191505060405180910390f35b34801561014c57600080fd5b506101796004803603602081101561016357600080fd5b810190808035906020019092919050505061039c565b005b34801561018757600080fd5b506101ca6004803603602081101561019e57600080fd5b81019080803573ffffffffffffffffffffffffffffffffffffffff169060200190929190505050610401565b604051808215151515815260200191505060405180910390f35b3480156101f057600080fd5b506101f9610421565b6040518082815260200191505060405180910390f35b34801561021b57600080fd5b50610224610427565b604051808273ffffffffffffffffffffffffffffffffffffffff1673ffffffffffffffffffffffffffffffffffffffff16815260200191505060405180910390f35b34801561027257600080fd5b5061029f6004803603602081101561028957600080fd5b810190808035906020019092919050505061044c565b604051808273ffffffffffffffffffffffffffffffffffffffff1673ffffffffffffffffffffffffffffffffffffffff16815260200191505060405180910390f35b6102e961048a565b005b3480156102f757600080fd5b50610300610507565b6040518082815260200191505060405180910390f35b34801561032257600080fd5b5061032b610511565b6040518082815260200191505060405180910390f35b34801561034d57600080fd5b506103846004803603604081101561036457600080fd5b81019080803590602001909291908035906020019092919050505061051b565b005b60025481565b60035481565b6000600254905090565b6000809054906101000a900473ffffffffffffffffffffffffffffffffffffffff1673ffffffffffffffffffffffffffffffffffffffff163373ffffffffffffffffffffffffffffffffffffffff161415156103f757600080fd5b8060028190555050565b60046020528060005260406000206000915054906101000a900460ff1681565b60015481565b6000809054906101000a900473ffffffffffffffffffffffffffffffffffffffff1681565b60058181548110151561045b57fe5b906000526020600020016000915054906101000a900473ffffffffffffffffffffffffffffffffffffffff1681565b600254341015151561049b57600080fd5b6001600460003373ffffffffffffffffffffffffffffffffffffffff1673ffffffffffffffffffffffffffffffffffffffff16815260200190815260200160002060006101000a81548160ff021916908315150217905550600160008154809291906001019190505550565b6000600354905090565b6000600154905090565b600082826000809054906101000a900473ffffffffffffffffffffffffffffffffffffffff16610549610617565b808481526020018381526020018273ffffffffffffffffffffffffffffffffffffffff1673ffffffffffffffffffffffffffffffffffffffff1681526020019350505050604051809103906000f0801580156105a9573d6000803e3d6000fd5b50905060058190806001815401808255809150509060018203906000526020600020016000909192909190916101000a81548173ffffffffffffffffffffffffffffffffffffffff021916908373ffffffffffffffffffffffffffffffffffffffff16021790555050505050565b60405161050d806106288339019056fe60806040526000600360146101000a81548160ff0219169083151502179055506000600360156101000a81548160ff0219169083151502179055506000600360166101000a81548160ff021916908315150217905550600060045534801561006657600080fd5b5060405160608061050d8339810180604052606081101561008657600080fd5b81019080805190602001909291908051906020019092919080519060200190929190505050826000819055508160018190555080600260006101000a81548173ffffffffffffffffffffffffffffffffffffffff021916908373ffffffffffffffffffffffffffffffffffffffff1602179055505050506104018061010c6000396000f3fe608060405260043610610078576000357c0100000000000000000000000000000000000000000000000000000000900463ffffffff16806302c7e7af1461007d57806323a96848146100ac578063466ccac0146100d757806389c71cc214610106578063cb0cc52d1461011d578063d160766214610158575b600080fd5b34801561008957600080fd5b50610092610162565b604051808215151515815260200191505060405180910390f35b3480156100b857600080fd5b506100c1610175565b6040518082815260200191505060405180910390f35b3480156100e357600080fd5b506100ec61017b565b604051808215151515815260200191505060405180910390f35b34801561011257600080fd5b5061011b61018e565b005b34801561012957600080fd5b506101566004803603602081101561014057600080fd5b8101908080359060200190929190505050610266565b005b6101606102ee565b005b600360149054906101000a900460ff1681565b60005481565b600360159054906101000a900460ff1681565b60001515600360169054906101000a900460ff1615151415156101b057600080fd5b600260009054906101000a900473ffffffffffffffffffffffffffffffffffffffff1673ffffffffffffffffffffffffffffffffffffffff163373ffffffffffffffffffffffffffffffffffffffff1614151561020c57600080fd5b60001515600360159054906101000a900460ff1615151415610248576001600360156101000a81548160ff021916908315150217905550610264565b6000600360156101000a81548160ff0219169083151502179055505b565b60001515600360169054906101000a900460ff16151514151561028857600080fd5b600260009054906101000a900473ffffffffffffffffffffffffffffffffffffffff1673ffffffffffffffffffffffffffffffffffffffff163373ffffffffffffffffffffffffffffffffffffffff161415156102e457600080fd5b8060048190555050565b60001515600360169054906101000a900460ff16151514151561031057600080fd5b60011515600360159054906101000a900460ff16151514151561033257600080fd5b60001515600360149054906101000a900460ff16151514151561035457600080fd5b60006004541415151561036657600080fd5b600454341015151561037757600080fd5b33600360006101000a81548173ffffffffffffffffffffffffffffffffffffffff021916908373ffffffffffffffffffffffffffffffffffffffff1602179055506001600360166101000a81548160ff02191690831515021790555056fea165627a7a72305820f73573e0c5de83fcba07ec9182d57fcb8a7f01ef134cb6982d79f991c05493430029a165627a7a72305820950714353799a22a0f50eb94ab66213c2b40b912324cd3debdea69aaa65094620029a165627a7a7230582007ac0e472151db14d0a5442b09ec21e377be4752cb54b353b1a87540bae074e90029",
  "source": "pragma solidity >=0.4.21;\r\n\r\n\r\n//to test this code go to : https://remix.ethereum.org/#optimize=false&version=soljson-v0.4.24+commit.e67f0147.js\r\n//past the code and go to \"run\", chose \" enviroment : javascript VM\".\r\n//\r\n\r\ncontract BoerFactory {\r\n    BoerContract[]public deployedBoerContracts; //alle gemaakte adressen opslaan.\r\n\r\n    //maakt persoonlijke contracten per gebruiker.\r\n    function createBoerContract() public {\r\n        BoerContract newBoerContract = new BoerContract(msg.sender);\r\n        deployedBoerContracts.push(newBoerContract);\r\n    }\r\n\r\n    function getDeployedContracts() public view returns(BoerContract[] memory)  {\r\n      return deployedBoerContracts;\r\n    }\r\n}\r\n\r\ncontract BoerContract {\r\n\r\n    jaarSubContract[]public deployedJaarSubContracts;\r\n    address public contractOwner;\r\n\r\n    constructor(address creator) public {\r\n      contractOwner = creator;\r\n\r\n    }\r\n\r\n    function createJaarSubContract(uint price, uint length) public {\r\n         require(msg.sender == contractOwner); //enkel eigenaar mag dit doen.\r\n\r\n         jaarSubContract newJaarSubContract = new jaarSubContract(price, length, msg.sender);\r\n         deployedJaarSubContracts.push(newJaarSubContract);\r\n    }\r\n\r\n    function getDeployedContracts() public view returns(jaarSubContract[] memory){\r\n        return deployedJaarSubContracts;\r\n    }\r\n}\r\n\r\n\r\ncontract jaarSubContract {\r\n\r\n    address public dataSeller; //address van de boer die data verkoopt.\r\n    uint public buyersCount = 0;\r\n    uint public priceOfData;\r\n    uint public lengthOfSubscription;\r\n    mapping(address => bool) public backers;\r\n    loadContract[]public deployedLoads;\r\n\r\n\r\n    constructor(uint price, uint length, address creator) public {\r\n        dataSeller = creator;\r\n        priceOfData = price;\r\n        lengthOfSubscription = length;\r\n    }\r\n\r\n    modifier restricted(){\r\n        require(msg.sender == dataSeller);\r\n        _;\r\n    }\r\n\r\n    function changePrice(uint newPrice) public restricted {\r\n        priceOfData = newPrice;\r\n    }\r\n\r\n    function createBuyRequest() public payable {\r\n        require(msg.value >= priceOfData);\r\n        backers[msg.sender] = true;\r\n        buyersCount++;\r\n    }\r\n\r\n    function getPrice() public view returns(uint){\r\n        return priceOfData;\r\n    }\r\n\r\n    function getBuyersCount() public view returns(uint){\r\n        return buyersCount;\r\n    }\r\n\r\n    function getSubLength()public view returns(uint){\r\n        return lengthOfSubscription;\r\n    }\r\n\r\n    function createLoad(uint loadId, uint companyId)public{ //loadId & companyId om te achterhalen van waar de load komt + dataseller.\r\n        loadContract newDeployedLoad = new loadContract(loadId, companyId, dataSeller);\r\n        deployedLoads.push(newDeployedLoad);\r\n    }\r\n}\r\n\r\ncontract loadContract { //kiezen of load items gezien mogen worden door iedereen of niet.\r\n                        //eventueel nog extra data toevoegen, hoe oud zijn de patatten?\r\n                        //Wanneer zijn ze geoogst ,......\r\n    uint public loadId;\r\n    uint companyId;\r\n    address farmer;\r\n    address loadBuyer; //person who bought the load can see the content.\r\n    bool public sold = false; //verkocht of niet?\r\n    bool public forSale = false; // is de load for sale?\r\n    bool lock = false; //locks the load. no changes can be made\r\n    uint loadPrice = 0;\r\n\r\n\r\n    constructor(uint id, uint cId, address harvester)public { //harvester == boer die de patatten hebben gekweekt.\r\n        loadId = id;\r\n        companyId = cId;\r\n        farmer = harvester;\r\n    }\r\n\r\n    function createBuyRequest()public payable {\r\n        require(lock == false);\r\n        require(forSale == true);\r\n        require(sold == false);\r\n        require(loadPrice != 0);\r\n        require(msg.value >= loadPrice);\r\n\r\n        loadBuyer = msg.sender;\r\n        lock = true;\r\n    }\r\n\r\n    function swapForSale()public {\r\n        require(lock == false);\r\n        require(msg.sender == farmer); // enkel farmer kan\r\n\r\n        if(forSale == false){\r\n            forSale = true;\r\n        }\r\n        else forSale = false;\r\n    }\r\n\r\n    function changeLoadPrice(uint newPrice)public {\r\n        require(lock == false);\r\n        require(msg.sender == farmer);\r\n\r\n        loadPrice = newPrice;\r\n    }\r\n\r\n\r\n\r\n}\r\n\r\n\r\n",
  "sourcePath": "C:/Users/robinator/Documents/GitHub/HackathonDellaware/Solidity/contracts/loadContract.sol",
  "compiler": {
    "name": "solc",
    "version": "0.5.0+commit.1d4f565a.Emscripten.clang"
  },
  "schemaVersion": "3.0.2",
  "updatedAt": "2019-03-01T10:15:22.844Z",
  "devdoc": {
    "methods": {}
  },
  "userdoc": {
    "methods": {}
  }
}